{
  "_format": "hh-sol-artifact-1",
  "contractName": "GreenHashData",
  "sourceName": "contracts/GreenHashData.sol",
  "abi": [
    {
      "inputs": [
        {
          "internalType": "uint256",
          "name": "_fee",
          "type": "uint256"
        }
      ],
      "stateMutability": "nonpayable",
      "type": "constructor"
    },
    {
      "anonymous": false,
      "inputs": [
        {
          "indexed": false,
          "internalType": "string",
          "name": "cid",
          "type": "string"
        },
        {
          "indexed": true,
          "internalType": "address",
          "name": "uploader",
          "type": "address"
        }
      ],
      "name": "CIDUploaded",
      "type": "event"
    },
    {
      "anonymous": false,
      "inputs": [
        {
          "indexed": true,
          "internalType": "address",
          "name": "user",
          "type": "address"
        },
        {
          "indexed": false,
          "internalType": "uint256",
          "name": "amount",
          "type": "uint256"
        }
      ],
      "name": "PaymentReceived",
      "type": "event"
    },
    {
      "anonymous": false,
      "inputs": [
        {
          "indexed": true,
          "internalType": "address",
          "name": "user",
          "type": "address"
        },
        {
          "indexed": false,
          "internalType": "string",
          "name": "predictionType",
          "type": "string"
        }
      ],
      "name": "PredictionAccessed",
      "type": "event"
    },
    {
      "inputs": [
        {
          "internalType": "address",
          "name": "user",
          "type": "address"
        }
      ],
      "name": "canPredictCrop",
      "outputs": [
        {
          "internalType": "bool",
          "name": "",
          "type": "bool"
        }
      ],
      "stateMutability": "view",
      "type": "function"
    },
    {
      "inputs": [
        {
          "internalType": "address",
          "name": "user",
          "type": "address"
        }
      ],
      "name": "canPredictFertilizer",
      "outputs": [
        {
          "internalType": "bool",
          "name": "",
          "type": "bool"
        }
      ],
      "stateMutability": "view",
      "type": "function"
    },
    {
      "inputs": [],
      "name": "freeDuration",
      "outputs": [
        {
          "internalType": "uint256",
          "name": "",
          "type": "uint256"
        }
      ],
      "stateMutability": "view",
      "type": "function"
    },
    {
      "inputs": [],
      "name": "getAllCIDs",
      "outputs": [
        {
          "internalType": "string[]",
          "name": "",
          "type": "string[]"
        }
      ],
      "stateMutability": "view",
      "type": "function"
    },
    {
      "inputs": [
        {
          "internalType": "address",
          "name": "user",
          "type": "address"
        }
      ],
      "name": "getUserActivities",
      "outputs": [
        {
          "components": [
            {
              "internalType": "string",
              "name": "predictionType",
              "type": "string"
            },
            {
              "internalType": "string",
              "name": "ipfsCID",
              "type": "string"
            },
            {
              "internalType": "uint256",
              "name": "timestamp",
              "type": "uint256"
            }
          ],
          "internalType": "struct GreenHashData.UserActivity[]",
          "name": "",
          "type": "tuple[]"
        }
      ],
      "stateMutability": "view",
      "type": "function"
    },
    {
      "inputs": [
        {
          "internalType": "uint256",
          "name": "",
          "type": "uint256"
        }
      ],
      "name": "ipfsCIDs",
      "outputs": [
        {
          "internalType": "string",
          "name": "",
          "type": "string"
        }
      ],
      "stateMutability": "view",
      "type": "function"
    },
    {
      "inputs": [
        {
          "internalType": "address",
          "name": "",
          "type": "address"
        }
      ],
      "name": "lastPaidCropAt",
      "outputs": [
        {
          "internalType": "uint256",
          "name": "",
          "type": "uint256"
        }
      ],
      "stateMutability": "view",
      "type": "function"
    },
    {
      "inputs": [
        {
          "internalType": "address",
          "name": "",
          "type": "address"
        }
      ],
      "name": "lastPaidFertilizerAt",
      "outputs": [
        {
          "internalType": "uint256",
          "name": "",
          "type": "uint256"
        }
      ],
      "stateMutability": "view",
      "type": "function"
    },
    {
      "inputs": [],
      "name": "owner",
      "outputs": [
        {
          "internalType": "address",
          "name": "",
          "type": "address"
        }
      ],
      "stateMutability": "view",
      "type": "function"
    },
    {
      "inputs": [],
      "name": "payForPrediction",
      "outputs": [],
      "stateMutability": "payable",
      "type": "function"
    },
    {
      "inputs": [],
      "name": "predictionFee",
      "outputs": [
        {
          "internalType": "uint256",
          "name": "",
          "type": "uint256"
        }
      ],
      "stateMutability": "view",
      "type": "function"
    },
    {
      "inputs": [
        {
          "internalType": "address",
          "name": "",
          "type": "address"
        }
      ],
      "name": "predictionsUsed",
      "outputs": [
        {
          "internalType": "uint256",
          "name": "",
          "type": "uint256"
        }
      ],
      "stateMutability": "view",
      "type": "function"
    },
    {
      "inputs": [
        {
          "internalType": "string",
          "name": "predictionType",
          "type": "string"
        },
        {
          "internalType": "string",
          "name": "cid",
          "type": "string"
        }
      ],
      "name": "recordPrediction",
      "outputs": [],
      "stateMutability": "nonpayable",
      "type": "function"
    },
    {
      "inputs": [
        {
          "internalType": "uint256",
          "name": "seconds_",
          "type": "uint256"
        }
      ],
      "name": "setFreeDuration",
      "outputs": [],
      "stateMutability": "nonpayable",
      "type": "function"
    },
    {
      "inputs": [
        {
          "internalType": "uint256",
          "name": "newFee",
          "type": "uint256"
        }
      ],
      "name": "setPredictionFee",
      "outputs": [],
      "stateMutability": "nonpayable",
      "type": "function"
    },
    {
      "inputs": [
        {
          "internalType": "string",
          "name": "cid",
          "type": "string"
        }
      ],
      "name": "uploadCID",
      "outputs": [],
      "stateMutability": "nonpayable",
      "type": "function"
    },
    {
      "inputs": [
        {
          "internalType": "address",
          "name": "",
          "type": "address"
        },
        {
          "internalType": "uint256",
          "name": "",
          "type": "uint256"
        }
      ],
      "name": "userActivities",
      "outputs": [
        {
          "internalType": "string",
          "name": "predictionType",
          "type": "string"
        },
        {
          "internalType": "string",
          "name": "ipfsCID",
          "type": "string"
        },
        {
          "internalType": "uint256",
          "name": "timestamp",
          "type": "uint256"
        }
      ],
      "stateMutability": "view",
      "type": "function"
    }
  ],
  "bytecode": "0x6080604052603c6002553480156200001657600080fd5b50604051620020843803806200208483398181016040528101906200003c9190620000ca565b336000806101000a81548173ffffffffffffffffffffffffffffffffffffffff021916908373ffffffffffffffffffffffffffffffffffffffff1602179055508060018190555050620000fc565b600080fd5b6000819050919050565b620000a4816200008f565b8114620000b057600080fd5b50565b600081519050620000c48162000099565b92915050565b600060208284031215620000e357620000e26200008a565b5b6000620000f384828501620000b3565b91505092915050565b611f78806200010c6000396000f3fe6080604052600436106100fe5760003560e01c80638b373d0c11610095578063ba6298b511610064578063ba6298b514610350578063be39f4c314610379578063c7ae288a146103a2578063d3cbc9f6146103cd578063f80e8abd1461040a576100fe565b80638b373d0c146102b55780638da5cb5b146102bf57806391405446146102ea578063b42696c814610313576100fe565b8063561c18a5116100d1578063561c18a5146101d35780635f7a2a5d146102105780636fc060841461024d57806372ef494a14610278576100fe565b80631e077b30146101035780632e092f9d146101405780633410e7ce1461017f5780633e0cdaf0146101aa575b600080fd5b34801561010f57600080fd5b5061012a6004803603810190610125919061114e565b610447565b6040516101379190611196565b60405180910390f35b34801561014c57600080fd5b50610167600480360381019061016291906111e7565b61049f565b604051610176939291906112c6565b60405180910390f35b34801561018b57600080fd5b506101946105f6565b6040516101a19190611417565b60405180910390f35b3480156101b657600080fd5b506101d160048036038101906101cc9190611439565b6106cf565b005b3480156101df57600080fd5b506101fa60048036038101906101f5919061114e565b610767565b6040516102079190611466565b60405180910390f35b34801561021c57600080fd5b506102376004803603810190610232919061114e565b61077f565b6040516102449190611466565b60405180910390f35b34801561025957600080fd5b50610262610797565b60405161026f9190611466565b60405180910390f35b34801561028457600080fd5b5061029f600480360381019061029a9190611439565b61079d565b6040516102ac9190611481565b60405180910390f35b6102bd610849565b005b3480156102cb57600080fd5b506102d4610966565b6040516102e191906114b2565b60405180910390f35b3480156102f657600080fd5b50610311600480360381019061030c9190611439565b61098a565b005b34801561031f57600080fd5b5061033a6004803603810190610335919061114e565b610a22565b60405161034791906115f5565b60405180910390f35b34801561035c57600080fd5b506103776004803603810190610372919061174c565b610bee565b005b34801561038557600080fd5b506103a0600480360381019061039b9190611824565b610f46565b005b3480156103ae57600080fd5b506103b7611066565b6040516103c49190611466565b60405180910390f35b3480156103d957600080fd5b506103f460048036038101906103ef919061114e565b61106c565b6040516104019190611466565b60405180910390f35b34801561041657600080fd5b50610431600480360381019061042c919061114e565b611084565b60405161043e9190611196565b60405180910390f35b6000600254600660008473ffffffffffffffffffffffffffffffffffffffff1673ffffffffffffffffffffffffffffffffffffffff168152602001908152602001600020544261049791906118a0565b109050919050565b600460205281600052604060002081815481106104bb57600080fd5b9060005260206000209060030201600091509150508060000180546104df90611903565b80601f016020809104026020016040519081016040528092919081815260200182805461050b90611903565b80156105585780601f1061052d57610100808354040283529160200191610558565b820191906000526020600020905b81548152906001019060200180831161053b57829003601f168201915b50505050509080600101805461056d90611903565b80601f016020809104026020016040519081016040528092919081815260200182805461059990611903565b80156105e65780601f106105bb576101008083540402835291602001916105e6565b820191906000526020600020905b8154815290600101906020018083116105c957829003601f168201915b5050505050908060020154905083565b60606003805480602002602001604051908101604052809291908181526020016000905b828210156106c657838290600052602060002001805461063990611903565b80601f016020809104026020016040519081016040528092919081815260200182805461066590611903565b80156106b25780601f10610687576101008083540402835291602001916106b2565b820191906000526020600020905b81548152906001019060200180831161069557829003601f168201915b50505050508152602001906001019061061a565b50505050905090565b60008054906101000a900473ffffffffffffffffffffffffffffffffffffffff1673ffffffffffffffffffffffffffffffffffffffff163373ffffffffffffffffffffffffffffffffffffffff161461075d576040517f08c379a000000000000000000000000000000000000000000000000000000000815260040161075490611980565b60405180910390fd5b8060028190555050565b60076020528060005260406000206000915090505481565b60056020528060005260406000206000915090505481565b60015481565b600381815481106107ad57600080fd5b9060005260206000200160009150905080546107c890611903565b80601f01602080910402602001604051908101604052809291908181526020018280546107f490611903565b80156108415780601f1061081657610100808354040283529160200191610841565b820191906000526020600020905b81548152906001019060200180831161082457829003601f168201915b505050505081565b60015434101561088e576040517f08c379a0000000000000000000000000000000000000000000000000000000008152600401610885906119ec565b60405180910390fd5b42600560003373ffffffffffffffffffffffffffffffffffffffff1673ffffffffffffffffffffffffffffffffffffffff1681526020019081526020016000208190555042600660003373ffffffffffffffffffffffffffffffffffffffff1673ffffffffffffffffffffffffffffffffffffffff168152602001908152602001600020819055503373ffffffffffffffffffffffffffffffffffffffff167f6ef95f06320e7a25a04a175ca677b7052bdd97131872c2192525a629f51be7703460405161095c9190611466565b60405180910390a2565b60008054906101000a900473ffffffffffffffffffffffffffffffffffffffff1681565b60008054906101000a900473ffffffffffffffffffffffffffffffffffffffff1673ffffffffffffffffffffffffffffffffffffffff163373ffffffffffffffffffffffffffffffffffffffff1614610a18576040517f08c379a0000000000000000000000000000000000000000000000000000000008152600401610a0f90611980565b60405180910390fd5b8060018190555050565b6060600460008373ffffffffffffffffffffffffffffffffffffffff1673ffffffffffffffffffffffffffffffffffffffff168152602001908152602001600020805480602002602001604051908101604052809291908181526020016000905b82821015610be35783829060005260206000209060030201604051806060016040529081600082018054610ab690611903565b80601f0160208091040260200160405190810160405280929190818152602001828054610ae290611903565b8015610b2f5780601f10610b0457610100808354040283529160200191610b2f565b820191906000526020600020905b815481529060010190602001808311610b1257829003601f168201915b50505050508152602001600182018054610b4890611903565b80601f0160208091040260200160405190810160405280929190818152602001828054610b7490611903565b8015610bc15780601f10610b9657610100808354040283529160200191610bc1565b820191906000526020600020905b815481529060010190602001808311610ba457829003601f168201915b5050505050815260200160028201548152505081526020019060010190610a83565b505050509050919050565b6040518060400160405280600481526020017f63726f700000000000000000000000000000000000000000000000000000000081525080519060200120828051906020012003610ccb57600254600560003373ffffffffffffffffffffffffffffffffffffffff1673ffffffffffffffffffffffffffffffffffffffff1681526020019081526020016000205442610c8691906118a0565b10610cc6576040517f08c379a0000000000000000000000000000000000000000000000000000000008152600401610cbd90611a58565b60405180910390fd5b610de4565b6040518060400160405280600a81526020017f66657274696c697a65720000000000000000000000000000000000000000000081525080519060200120828051906020012003610da857600254600660003373ffffffffffffffffffffffffffffffffffffffff1673ffffffffffffffffffffffffffffffffffffffff1681526020019081526020016000205442610d6391906118a0565b10610da3576040517f08c379a0000000000000000000000000000000000000000000000000000000008152600401610d9a90611ac4565b60405180910390fd5b610de3565b6040517f08c379a0000000000000000000000000000000000000000000000000000000008152600401610dda90611b30565b60405180910390fd5b5b600760003373ffffffffffffffffffffffffffffffffffffffff1673ffffffffffffffffffffffffffffffffffffffff1681526020019081526020016000206000815480929190610e3490611b50565b9190505550600460003373ffffffffffffffffffffffffffffffffffffffff1673ffffffffffffffffffffffffffffffffffffffff16815260200190815260200160002060405180606001604052808481526020018381526020014281525090806001815401808255809150506001900390600052602060002090600302016000909190919091506000820151816000019081610ed19190611d44565b506020820151816001019081610ee79190611d44565b506040820151816002015550503373ffffffffffffffffffffffffffffffffffffffff167f047a988fa46dba477ff604128482e2b6cbc2b207840858e43ef03738d198d24283604051610f3a9190611481565b60405180910390a25050565b60008054906101000a900473ffffffffffffffffffffffffffffffffffffffff1673ffffffffffffffffffffffffffffffffffffffff163373ffffffffffffffffffffffffffffffffffffffff1614610fd4576040517f08c379a0000000000000000000000000000000000000000000000000000000008152600401610fcb90611980565b60405180910390fd5b6003828290918060018154018082558091505060019003906000526020600020016000909192909192909192909192509182611011929190611e21565b503373ffffffffffffffffffffffffffffffffffffffff167fffbd27442449a1861d36776bc9bbf3f4a1721341ca7a18937e118acfba19af55838360405161105a929190611f1e565b60405180910390a25050565b60025481565b60066020528060005260406000206000915090505481565b6000600254600560008473ffffffffffffffffffffffffffffffffffffffff1673ffffffffffffffffffffffffffffffffffffffff16815260200190815260200160002054426110d491906118a0565b109050919050565b6000604051905090565b600080fd5b600080fd5b600073ffffffffffffffffffffffffffffffffffffffff82169050919050565b600061111b826110f0565b9050919050565b61112b81611110565b811461113657600080fd5b50565b60008135905061114881611122565b92915050565b600060208284031215611164576111636110e6565b5b600061117284828501611139565b91505092915050565b60008115159050919050565b6111908161117b565b82525050565b60006020820190506111ab6000830184611187565b92915050565b6000819050919050565b6111c4816111b1565b81146111cf57600080fd5b50565b6000813590506111e1816111bb565b92915050565b600080604083850312156111fe576111fd6110e6565b5b600061120c85828601611139565b925050602061121d858286016111d2565b9150509250929050565b600081519050919050565b600082825260208201905092915050565b60005b83811015611261578082015181840152602081019050611246565b60008484015250505050565b6000601f19601f8301169050919050565b600061128982611227565b6112938185611232565b93506112a3818560208601611243565b6112ac8161126d565b840191505092915050565b6112c0816111b1565b82525050565b600060608201905081810360008301526112e0818661127e565b905081810360208301526112f4818561127e565b905061130360408301846112b7565b949350505050565b600081519050919050565b600082825260208201905092915050565b6000819050602082019050919050565b600082825260208201905092915050565b600061135382611227565b61135d8185611337565b935061136d818560208601611243565b6113768161126d565b840191505092915050565b600061138d8383611348565b905092915050565b6000602082019050919050565b60006113ad8261130b565b6113b78185611316565b9350836020820285016113c985611327565b8060005b8581101561140557848403895281516113e68582611381565b94506113f183611395565b925060208a019950506001810190506113cd565b50829750879550505050505092915050565b6000602082019050818103600083015261143181846113a2565b905092915050565b60006020828403121561144f5761144e6110e6565b5b600061145d848285016111d2565b91505092915050565b600060208201905061147b60008301846112b7565b92915050565b6000602082019050818103600083015261149b818461127e565b905092915050565b6114ac81611110565b82525050565b60006020820190506114c760008301846114a3565b92915050565b600081519050919050565b600082825260208201905092915050565b6000819050602082019050919050565b611502816111b1565b82525050565b600060608301600083015184820360008601526115258282611348565b9150506020830151848203602086015261153f8282611348565b915050604083015161155460408601826114f9565b508091505092915050565b600061156b8383611508565b905092915050565b6000602082019050919050565b600061158b826114cd565b61159581856114d8565b9350836020820285016115a7856114e9565b8060005b858110156115e357848403895281516115c4858261155f565b94506115cf83611573565b925060208a019950506001810190506115ab565b50829750879550505050505092915050565b6000602082019050818103600083015261160f8184611580565b905092915050565b600080fd5b600080fd5b7f4e487b7100000000000000000000000000000000000000000000000000000000600052604160045260246000fd5b6116598261126d565b810181811067ffffffffffffffff8211171561167857611677611621565b5b80604052505050565b600061168b6110dc565b90506116978282611650565b919050565b600067ffffffffffffffff8211156116b7576116b6611621565b5b6116c08261126d565b9050602081019050919050565b82818337600083830152505050565b60006116ef6116ea8461169c565b611681565b90508281526020810184848401111561170b5761170a61161c565b5b6117168482856116cd565b509392505050565b600082601f83011261173357611732611617565b5b81356117438482602086016116dc565b91505092915050565b60008060408385031215611763576117626110e6565b5b600083013567ffffffffffffffff811115611781576117806110eb565b5b61178d8582860161171e565b925050602083013567ffffffffffffffff8111156117ae576117ad6110eb565b5b6117ba8582860161171e565b9150509250929050565b600080fd5b600080fd5b60008083601f8401126117e4576117e3611617565b5b8235905067ffffffffffffffff811115611801576118006117c4565b5b60208301915083600182028301111561181d5761181c6117c9565b5b9250929050565b6000806020838503121561183b5761183a6110e6565b5b600083013567ffffffffffffffff811115611859576118586110eb565b5b611865858286016117ce565b92509250509250929050565b7f4e487b7100000000000000000000000000000000000000000000000000000000600052601160045260246000fd5b60006118ab826111b1565b91506118b6836111b1565b92508282039050818111156118ce576118cd611871565b5b92915050565b7f4e487b7100000000000000000000000000000000000000000000000000000000600052602260045260246000fd5b6000600282049050600182168061191b57607f821691505b60208210810361192e5761192d6118d4565b5b50919050565b7f4e6f7420617574686f72697a6564000000000000000000000000000000000000600082015250565b600061196a600e83611232565b915061197582611934565b602082019050919050565b600060208201905081810360008301526119998161195d565b9050919050565b7f496e73756666696369656e742045746865722073656e74000000000000000000600082015250565b60006119d6601783611232565b91506119e1826119a0565b602082019050919050565b60006020820190508181036000830152611a05816119c9565b9050919050565b7f43726f702070726564696374696f6e206e6f7420706169640000000000000000600082015250565b6000611a42601883611232565b9150611a4d82611a0c565b602082019050919050565b60006020820190508181036000830152611a7181611a35565b9050919050565b7f46657274696c697a65722070726564696374696f6e206e6f7420706169640000600082015250565b6000611aae601e83611232565b9150611ab982611a78565b602082019050919050565b60006020820190508181036000830152611add81611aa1565b9050919050565b7f496e76616c69642070726564696374696f6e2074797065000000000000000000600082015250565b6000611b1a601783611232565b9150611b2582611ae4565b602082019050919050565b60006020820190508181036000830152611b4981611b0d565b9050919050565b6000611b5b826111b1565b91507fffffffffffffffffffffffffffffffffffffffffffffffffffffffffffffffff8203611b8d57611b8c611871565b5b600182019050919050565b60008190508160005260206000209050919050565b60006020601f8301049050919050565b600082821b905092915050565b600060088302611bfa7fffffffffffffffffffffffffffffffffffffffffffffffffffffffffffffffff82611bbd565b611c048683611bbd565b95508019841693508086168417925050509392505050565b6000819050919050565b6000611c41611c3c611c37846111b1565b611c1c565b6111b1565b9050919050565b6000819050919050565b611c5b83611c26565b611c6f611c6782611c48565b848454611bca565b825550505050565b600090565b611c84611c77565b611c8f818484611c52565b505050565b5b81811015611cb357611ca8600082611c7c565b600181019050611c95565b5050565b601f821115611cf857611cc981611b98565b611cd284611bad565b81016020851015611ce1578190505b611cf5611ced85611bad565b830182611c94565b50505b505050565b600082821c905092915050565b6000611d1b60001984600802611cfd565b1980831691505092915050565b6000611d348383611d0a565b9150826002028217905092915050565b611d4d82611227565b67ffffffffffffffff811115611d6657611d65611621565b5b611d708254611903565b611d7b828285611cb7565b600060209050601f831160018114611dae5760008415611d9c578287015190505b611da68582611d28565b865550611e0e565b601f198416611dbc86611b98565b60005b82811015611de457848901518255600182019150602085019450602081019050611dbf565b86831015611e015784890151611dfd601f891682611d0a565b8355505b6001600288020188555050505b505050505050565b600082905092915050565b611e2b8383611e16565b67ffffffffffffffff811115611e4457611e43611621565b5b611e4e8254611903565b611e59828285611cb7565b6000601f831160018114611e885760008415611e76578287013590505b611e808582611d28565b865550611ee8565b601f198416611e9686611b98565b60005b82811015611ebe57848901358255600182019150602085019450602081019050611e99565b86831015611edb5784890135611ed7601f891682611d0a565b8355505b6001600288020188555050505b50505050505050565b6000611efd8385611232565b9350611f0a8385846116cd565b611f138361126d565b840190509392505050565b60006020820190508181036000830152611f39818486611ef1565b9050939250505056fea26469706673582212209412b46c882b612a125ce9892d0e6b89bb6b8ee213c6c5f07c9e80897fd596ba64736f6c63430008110033",
  "linkReferences": {},
  "deployedLinkReferences": {}
}